{
  "contractName": "MyEstate",
  "abi": [
    {
      "anonymous": false,
      "inputs": [],
      "name": "adCreated",
      "type": "event"
    },
    {
      "anonymous": false,
      "inputs": [],
      "name": "adStatusChanged",
      "type": "event"
    },
    {
      "anonymous": false,
      "inputs": [],
      "name": "estateCreated",
      "type": "event"
    },
    {
      "anonymous": false,
      "inputs": [],
      "name": "estatePurchased",
      "type": "event"
    },
    {
      "anonymous": false,
      "inputs": [],
      "name": "estateStatusChanged",
      "type": "event"
    },
    {
      "anonymous": false,
      "inputs": [],
      "name": "fundsBack",
      "type": "event"
    },
    {
      "inputs": [
        {
          "internalType": "address",
          "name": "",
          "type": "address"
        }
      ],
      "name": "balances",
      "outputs": [
        {
          "internalType": "uint256",
          "name": "",
          "type": "uint256"
        }
      ],
      "stateMutability": "view",
      "type": "function"
    },
    {
      "inputs": [
        {
          "internalType": "uint256",
          "name": "size",
          "type": "uint256"
        },
        {
          "internalType": "string",
          "name": "estateAddress",
          "type": "string"
        },
        {
          "internalType": "enum MyEstate.titeOfEstate",
          "name": "estype",
          "type": "uint8"
        }
      ],
      "name": "cretaeEstate",
      "outputs": [],
      "stateMutability": "nonpayable",
      "type": "function"
    },
    {
      "inputs": [],
      "name": "createAd",
      "outputs": [],
      "stateMutability": "nonpayable",
      "type": "function"
    },
    {
      "inputs": [],
      "name": "changeStatusEstate",
      "outputs": [],
      "stateMutability": "nonpayable",
      "type": "function"
    },
    {
      "inputs": [],
      "name": "chabgeStatusAd",
      "outputs": [],
      "stateMutability": "nonpayable",
      "type": "function"
    },
    {
      "inputs": [],
      "name": "withDraw",
      "outputs": [],
      "stateMutability": "nonpayable",
      "type": "function"
    },
    {
      "inputs": [],
      "name": "buyEstate",
      "outputs": [],
      "stateMutability": "nonpayable",
      "type": "function"
    },
    {
      "inputs": [],
      "name": "getBalance",
      "outputs": [
        {
          "internalType": "uint256",
          "name": "",
          "type": "uint256"
        }
      ],
      "stateMutability": "view",
      "type": "function"
    },
    {
      "inputs": [],
      "name": "getEstate",
      "outputs": [
        {
          "components": [
            {
              "internalType": "uint256",
              "name": "size",
              "type": "uint256"
            },
            {
              "internalType": "string",
              "name": "estateAddress",
              "type": "string"
            },
            {
              "internalType": "address",
              "name": "owner",
              "type": "address"
            },
            {
              "internalType": "enum MyEstate.titeOfEstate",
              "name": "esType",
              "type": "uint8"
            },
            {
              "internalType": "bool",
              "name": "status",
              "type": "bool"
            },
            {
              "internalType": "uint256",
              "name": "idEstate",
              "type": "uint256"
            }
          ],
          "internalType": "struct MyEstate.Estate[]",
          "name": "",
          "type": "tuple[]"
        }
      ],
      "stateMutability": "view",
      "type": "function"
    },
    {
      "inputs": [],
      "name": "getAds",
      "outputs": [
        {
          "components": [
            {
              "internalType": "address",
              "name": "owner",
              "type": "address"
            },
            {
              "internalType": "address",
              "name": "buyer",
              "type": "address"
            },
            {
              "internalType": "uint256",
              "name": "price",
              "type": "uint256"
            },
            {
              "internalType": "uint256",
              "name": "idEstate",
              "type": "uint256"
            },
            {
              "internalType": "uint256",
              "name": "dateTime",
              "type": "uint256"
            },
            {
              "internalType": "enum MyEstate.status",
              "name": "adStatus",
              "type": "uint8"
            }
          ],
          "internalType": "struct MyEstate.Advertisement[]",
          "name": "",
          "type": "tuple[]"
        }
      ],
      "stateMutability": "view",
      "type": "function"
    }
  ],
  "bytecode": "0x608060405234801561000f575f80fd5b506111048061001d5f395ff3fe608060405234801561000f575f80fd5b506004361061009c575f3560e01c8063904bf42911610064578063904bf42914610134578063911e2c821461013e578063a35580de1461015a578063a6cc87a614610164578063b9b5ad2f1461016e5761009c565b806306184124146100a05780630955ae99146100be5780630fdb1c10146100dc57806312065fe0146100e657806327e235e314610104575b5f80fd5b6100a8610178565b6040516100b59190610913565b60405180910390f35b6100c6610321565b6040516100d39190610a9a565b60405180910390f35b6100e461047e565b005b6100ee610480565b6040516100fb9190610ac9565b60405180910390f35b61011e60048036038101906101199190610b1d565b610484565b60405161012b9190610ac9565b60405180910390f35b61013c610499565b005b61015860048036038101906101539190610cc1565b61049b565b005b61016261065e565b005b61016c610660565b005b610176610662565b005b60605f805480602002602001604051908101604052809291908181526020015f905b82821015610318578382905f5260205f2090600402016040518060c00160405290815f82015481526020016001820180546101d490610d5a565b80601f016020809104026020016040519081016040528092919081815260200182805461020090610d5a565b801561024b5780601f106102225761010080835404028352916020019161024b565b820191905f5260205f20905b81548152906001019060200180831161022e57829003601f168201915b50505050508152602001600282015f9054906101000a900473ffffffffffffffffffffffffffffffffffffffff1673ffffffffffffffffffffffffffffffffffffffff1673ffffffffffffffffffffffffffffffffffffffff1681526020016002820160149054906101000a900460ff1660028111156102ce576102cd61076e565b5b60028111156102e0576102df61076e565b5b81526020016002820160159054906101000a900460ff161515151581526020016003820154815250508152602001906001019061019a565b50505050905090565b60606001805480602002602001604051908101604052809291908181526020015f905b82821015610475578382905f5260205f2090600602016040518060c00160405290815f82015f9054906101000a900473ffffffffffffffffffffffffffffffffffffffff1673ffffffffffffffffffffffffffffffffffffffff1673ffffffffffffffffffffffffffffffffffffffff168152602001600182015f9054906101000a900473ffffffffffffffffffffffffffffffffffffffff1673ffffffffffffffffffffffffffffffffffffffff1673ffffffffffffffffffffffffffffffffffffffff168152602001600282015481526020016003820154815260200160048201548152602001600582015f9054906101000a900460ff1660018111156104505761044f61076e565b5b60018111156104625761046161076e565b5b8152505081526020019060010190610344565b50505050905090565b565b5f90565b6002602052805f5260405f205f915090505481565b565b600183116104de576040517f08c379a00000000000000000000000000000000000000000000000000000000081526004016104d590610de4565b60405180910390fd5b5f6040518060c001604052808581526020018481526020013373ffffffffffffffffffffffffffffffffffffffff1681526020018360028111156105255761052461076e565b5b815260200160011515815260200160015f805490506105449190610e2f565b815250908060018154018082558091505060019003905f5260205f2090600402015f909190919091505f820151815f0155602082015181600101908161058a9190610fff565b506040820151816002015f6101000a81548173ffffffffffffffffffffffffffffffffffffffff021916908373ffffffffffffffffffffffffffffffffffffffff16021790555060608201518160020160146101000a81548160ff021916908360028111156105fc576105fb61076e565b5b021790555060808201518160020160156101000a81548160ff02191690831515021790555060a0820151816003015550507f5736e653ff26390bfbc219be81e376114a530d3881d4e1c77b476e85d6d330b560405160405180910390a1505050565b565b565b565b5f81519050919050565b5f82825260208201905092915050565b5f819050602082019050919050565b5f819050919050565b61069f8161068d565b82525050565b5f81519050919050565b5f82825260208201905092915050565b5f5b838110156106dc5780820151818401526020810190506106c1565b5f8484015250505050565b5f601f19601f8301169050919050565b5f610701826106a5565b61070b81856106af565b935061071b8185602086016106bf565b610724816106e7565b840191505092915050565b5f73ffffffffffffffffffffffffffffffffffffffff82169050919050565b5f6107588261072f565b9050919050565b6107688161074e565b82525050565b7f4e487b71000000000000000000000000000000000000000000000000000000005f52602160045260245ffd5b600381106107ac576107ab61076e565b5b50565b5f8190506107bc8261079b565b919050565b5f6107cb826107af565b9050919050565b6107db816107c1565b82525050565b5f8115159050919050565b6107f5816107e1565b82525050565b5f60c083015f8301516108105f860182610696565b506020830151848203602086015261082882826106f7565b915050604083015161083d604086018261075f565b50606083015161085060608601826107d2565b50608083015161086360808601826107ec565b5060a083015161087660a0860182610696565b508091505092915050565b5f61088c83836107fb565b905092915050565b5f602082019050919050565b5f6108aa82610664565b6108b4818561066e565b9350836020820285016108c68561067e565b805f5b8581101561090157848403895281516108e28582610881565b94506108ed83610894565b925060208a019950506001810190506108c9565b50829750879550505050505092915050565b5f6020820190508181035f83015261092b81846108a0565b905092915050565b5f81519050919050565b5f82825260208201905092915050565b5f819050602082019050919050565b6002811061096d5761096c61076e565b5b50565b5f81905061097d8261095c565b919050565b5f61098c82610970565b9050919050565b61099c81610982565b82525050565b60c082015f8201516109b65f85018261075f565b5060208201516109c9602085018261075f565b5060408201516109dc6040850182610696565b5060608201516109ef6060850182610696565b506080820151610a026080850182610696565b5060a0820151610a1560a0850182610993565b50505050565b5f610a2683836109a2565b60c08301905092915050565b5f602082019050919050565b5f610a4882610933565b610a52818561093d565b9350610a5d8361094d565b805f5b83811015610a8d578151610a748882610a1b565b9750610a7f83610a32565b925050600181019050610a60565b5085935050505092915050565b5f6020820190508181035f830152610ab28184610a3e565b905092915050565b610ac38161068d565b82525050565b5f602082019050610adc5f830184610aba565b92915050565b5f604051905090565b5f80fd5b5f80fd5b610afc8161074e565b8114610b06575f80fd5b50565b5f81359050610b1781610af3565b92915050565b5f60208284031215610b3257610b31610aeb565b5b5f610b3f84828501610b09565b91505092915050565b610b518161068d565b8114610b5b575f80fd5b50565b5f81359050610b6c81610b48565b92915050565b5f80fd5b5f80fd5b7f4e487b71000000000000000000000000000000000000000000000000000000005f52604160045260245ffd5b610bb0826106e7565b810181811067ffffffffffffffff82111715610bcf57610bce610b7a565b5b80604052505050565b5f610be1610ae2565b9050610bed8282610ba7565b919050565b5f67ffffffffffffffff821115610c0c57610c0b610b7a565b5b610c15826106e7565b9050602081019050919050565b828183375f83830152505050565b5f610c42610c3d84610bf2565b610bd8565b905082815260208101848484011115610c5e57610c5d610b76565b5b610c69848285610c22565b509392505050565b5f82601f830112610c8557610c84610b72565b5b8135610c95848260208601610c30565b91505092915050565b60038110610caa575f80fd5b50565b5f81359050610cbb81610c9e565b92915050565b5f805f60608486031215610cd857610cd7610aeb565b5b5f610ce586828701610b5e565b935050602084013567ffffffffffffffff811115610d0657610d05610aef565b5b610d1286828701610c71565b9250506040610d2386828701610cad565b9150509250925092565b7f4e487b71000000000000000000000000000000000000000000000000000000005f52602260045260245ffd5b5f6002820490506001821680610d7157607f821691505b602082108103610d8457610d83610d2d565b5b50919050565b5f82825260208201905092915050565b7f73697a652073686f756c642062652062696767657220310000000000000000005f82015250565b5f610dce601783610d8a565b9150610dd982610d9a565b602082019050919050565b5f6020820190508181035f830152610dfb81610dc2565b9050919050565b7f4e487b71000000000000000000000000000000000000000000000000000000005f52601160045260245ffd5b5f610e398261068d565b9150610e448361068d565b9250828201905080821115610e5c57610e5b610e02565b5b92915050565b5f819050815f5260205f209050919050565b5f6020601f8301049050919050565b5f82821b905092915050565b5f60088302610ebe7fffffffffffffffffffffffffffffffffffffffffffffffffffffffffffffffff82610e83565b610ec88683610e83565b95508019841693508086168417925050509392505050565b5f819050919050565b5f610f03610efe610ef98461068d565b610ee0565b61068d565b9050919050565b5f819050919050565b610f1c83610ee9565b610f30610f2882610f0a565b848454610e8f565b825550505050565b5f90565b610f44610f38565b610f4f818484610f13565b505050565b5b81811015610f7257610f675f82610f3c565b600181019050610f55565b5050565b601f821115610fb757610f8881610e62565b610f9184610e74565b81016020851015610fa0578190505b610fb4610fac85610e74565b830182610f54565b50505b505050565b5f82821c905092915050565b5f610fd75f1984600802610fbc565b1980831691505092915050565b5f610fef8383610fc8565b9150826002028217905092915050565b611008826106a5565b67ffffffffffffffff81111561102157611020610b7a565b5b61102b8254610d5a565b611036828285610f76565b5f60209050601f831160018114611067575f8415611055578287015190505b61105f8582610fe4565b8655506110c6565b601f19841661107586610e62565b5f5b8281101561109c57848901518255600182019150602085019450602081019050611077565b868310156110b957848901516110b5601f891682610fc8565b8355505b6001600288020188555050505b50505050505056fea26469706673582212207cd82390ab376593c0b9e8e7710cd354ce69b7d67aff524090267f8268e3889564736f6c63430008150033",
  "immutableReferences": {},
  "source": "// SPDX-License-Identifier: GPL-3.0\r\npragma solidity >=0.7.0 <0.9.0;\r\n\r\n\r\ncontract MyEstate {\r\n    enum titeOfEstate {\r\n        house,\r\n        flat,\r\n        loft\r\n    }\r\n\r\n    enum status {\r\n        opened,\r\n        closed\r\n    }\r\n\r\n    struct Estate {\r\n        uint size;\r\n        string estateAddress;\r\n        address owner;\r\n        titeOfEstate esType;\r\n        bool status;\r\n        uint idEstate;\r\n    }\r\n\r\n    \r\n    struct Advertisement {\r\n        address owner;\r\n        address buyer;\r\n        uint price;\r\n        uint idEstate;\r\n        uint dateTime;\r\n        status adStatus;\r\n    }\r\n\r\n    Estate[] estate;\r\n    Advertisement[] ads;\r\n\r\n    mapping(address => uint) public balances;\r\n\r\n    event adCreated();\r\n    event estateCreated();\r\n    event estateStatusChanged();\r\n    event adStatusChanged();\r\n    event estatePurchased();\r\n    event fundsBack();\r\n\r\n    modifier enoughValue(uint value, uint price){\r\n        require(value >= price, \"not have neough money\");\r\n        _;\r\n    }\r\n\r\n    modifier onlyEstateOwner(uint idEstate){\r\n        require(estate[idEstate].owner == msg.sender, \"you must be a estate owner\");\r\n        _;\r\n    }\r\n\r\n    modifier onlyAdOwner(uint idAd){\r\n        require(ads[idAd].owner == msg.sender, \"you must be a advertisement owner\");\r\n        _;\r\n    }\r\n\r\n    modifier isActiveEstate(uint idEstate){\r\n        require(estate[idEstate].status, \"this estate is not allow\");\r\n        _;\r\n    }\r\n\r\n    modifier isClosedAd(uint idAd){\r\n        require(ads[idAd].adStatus == status.closed, \"advertisement must be open\");\r\n        _;\r\n    }\r\n\r\n    modifier isEstateExist(uint idEstate){\r\n        require(idEstate < 0 || idEstate >= estate.length, \"estate isnt exist\");\r\n        _;\r\n    }\r\n\r\n    modifier isAdExist(uint idAd){\r\n        require(idAd < 0 || idAd >= ads.length, \"advertisement isnt exist\");\r\n        _;\r\n    }\r\n\r\n    function cretaeEstate(uint size, string memory estateAddress, titeOfEstate estype) public {\r\n        require(size > 1, \"size should be bigger 1\");\r\n        estate.push(Estate(size, estateAddress, msg.sender, estype, true, estate.length + 1));\r\n        emit estateCreated();\r\n    }\r\n\r\n    function createAd() public {}\r\n\r\n    function changeStatusEstate() public {}\r\n\r\n    function chabgeStatusAd() public {}\r\n\r\n    function withDraw() public {}\r\n\r\n    function buyEstate() public {}\r\n\r\n    function getBalance() public view returns(uint){}\r\n\r\n    function getEstate() public view returns(Estate[] memory){\r\n        return estate;\r\n    }\r\n\r\n    function getAds() public view returns(Advertisement[] memory){\r\n        return ads;\r\n    }\r\n}",
  "sourcePath": "C:\\Users\\eto_d\\OneDrive\\ \\testSolidity\\contracts\\main.sol",
  "compiler": {
    "name": "solc",
    "version": "0.8.21+commit.d9974bed.Emscripten.clang"
  },
  "schemaVersion": "3.4.16",
  "updatedAt": "2024-03-11T14:14:52.440Z",
  "devdoc": {
    "kind": "dev",
    "methods": {},
    "version": 1
  },
  "userdoc": {
    "kind": "user",
    "methods": {},
    "version": 1
  }
}