{
  "contractName": "MyEstate",
  "abi": [
    {
      "anonymous": false,
      "inputs": [
        {
          "indexed": false,
          "internalType": "address",
          "name": "_from",
          "type": "address"
        },
        {
          "indexed": false,
          "internalType": "uint256",
          "name": "_amount",
          "type": "uint256"
        }
      ],
      "name": "Payd",
      "type": "event"
    },
    {
      "anonymous": false,
      "inputs": [
        {
          "indexed": false,
          "internalType": "address",
          "name": "_owner",
          "type": "address"
        },
        {
          "indexed": false,
          "internalType": "uint256",
          "name": "_idEstate",
          "type": "uint256"
        },
        {
          "indexed": false,
          "internalType": "uint256",
          "name": "_idAd",
          "type": "uint256"
        },
        {
          "indexed": false,
          "internalType": "uint256",
          "name": "_dateTime",
          "type": "uint256"
        },
        {
          "indexed": false,
          "internalType": "uint256",
          "name": "_price",
          "type": "uint256"
        }
      ],
      "name": "adCreated",
      "type": "event"
    },
    {
      "anonymous": false,
      "inputs": [
        {
          "indexed": false,
          "internalType": "address",
          "name": "_owner",
          "type": "address"
        },
        {
          "indexed": false,
          "internalType": "uint256",
          "name": "_idEstate",
          "type": "uint256"
        },
        {
          "indexed": false,
          "internalType": "uint256",
          "name": "idAd",
          "type": "uint256"
        },
        {
          "indexed": false,
          "internalType": "uint256",
          "name": "_dateTime",
          "type": "uint256"
        },
        {
          "indexed": false,
          "internalType": "enum MyEstate.status",
          "name": "_adStatus",
          "type": "uint8"
        }
      ],
      "name": "adStatusChanged",
      "type": "event"
    },
    {
      "anonymous": false,
      "inputs": [
        {
          "indexed": false,
          "internalType": "address",
          "name": "_owner",
          "type": "address"
        },
        {
          "indexed": false,
          "internalType": "uint256",
          "name": "_idAstate",
          "type": "uint256"
        },
        {
          "indexed": false,
          "internalType": "uint256",
          "name": "_dateTime",
          "type": "uint256"
        },
        {
          "indexed": false,
          "internalType": "enum MyEstate.titeOfEstate",
          "name": "_esType",
          "type": "uint8"
        }
      ],
      "name": "estateCreated",
      "type": "event"
    },
    {
      "anonymous": false,
      "inputs": [
        {
          "indexed": false,
          "internalType": "address",
          "name": "_owner",
          "type": "address"
        },
        {
          "indexed": false,
          "internalType": "address",
          "name": "_buyer",
          "type": "address"
        },
        {
          "indexed": false,
          "internalType": "uint256",
          "name": "_idAd",
          "type": "uint256"
        },
        {
          "indexed": false,
          "internalType": "uint256",
          "name": "_idEstate",
          "type": "uint256"
        },
        {
          "indexed": false,
          "internalType": "enum MyEstate.status",
          "name": "_adStatus",
          "type": "uint8"
        },
        {
          "indexed": false,
          "internalType": "uint256",
          "name": "_dateTime",
          "type": "uint256"
        },
        {
          "indexed": false,
          "internalType": "uint256",
          "name": "_price",
          "type": "uint256"
        }
      ],
      "name": "estatePurchased",
      "type": "event"
    },
    {
      "anonymous": false,
      "inputs": [
        {
          "indexed": false,
          "internalType": "address",
          "name": "_owner",
          "type": "address"
        },
        {
          "indexed": false,
          "internalType": "uint256",
          "name": "_idEstate",
          "type": "uint256"
        },
        {
          "indexed": false,
          "internalType": "uint256",
          "name": "_dateTime",
          "type": "uint256"
        },
        {
          "indexed": false,
          "internalType": "bool",
          "name": "_isActive",
          "type": "bool"
        }
      ],
      "name": "estateStatusChanged",
      "type": "event"
    },
    {
      "anonymous": false,
      "inputs": [
        {
          "indexed": false,
          "internalType": "address",
          "name": "_to",
          "type": "address"
        },
        {
          "indexed": false,
          "internalType": "uint256",
          "name": "_value",
          "type": "uint256"
        },
        {
          "indexed": false,
          "internalType": "uint256",
          "name": "_dateTime",
          "type": "uint256"
        }
      ],
      "name": "fundsBack",
      "type": "event"
    },
    {
      "anonymous": false,
      "inputs": [
        {
          "indexed": false,
          "internalType": "address",
          "name": "_from",
          "type": "address"
        },
        {
          "indexed": false,
          "internalType": "uint256",
          "name": "_amount",
          "type": "uint256"
        }
      ],
      "name": "fundsBack",
      "type": "event"
    },
    {
      "inputs": [
        {
          "internalType": "uint256",
          "name": "size",
          "type": "uint256"
        },
        {
          "internalType": "string",
          "name": "estateAddress",
          "type": "string"
        },
        {
          "internalType": "enum MyEstate.titeOfEstate",
          "name": "estype",
          "type": "uint8"
        }
      ],
      "name": "cretaeEstate",
      "outputs": [],
      "stateMutability": "nonpayable",
      "type": "function"
    },
    {
      "inputs": [
        {
          "internalType": "uint256",
          "name": "price",
          "type": "uint256"
        },
        {
          "internalType": "uint256",
          "name": "idEstate",
          "type": "uint256"
        }
      ],
      "name": "createAd",
      "outputs": [],
      "stateMutability": "nonpayable",
      "type": "function"
    },
    {
      "inputs": [
        {
          "internalType": "uint256",
          "name": "idEstate",
          "type": "uint256"
        }
      ],
      "name": "changeStatusEstate",
      "outputs": [],
      "stateMutability": "nonpayable",
      "type": "function"
    },
    {
      "inputs": [
        {
          "internalType": "uint256",
          "name": "adId",
          "type": "uint256"
        },
        {
          "internalType": "uint256",
          "name": "estateId",
          "type": "uint256"
        }
      ],
      "name": "changeStatusAd",
      "outputs": [],
      "stateMutability": "nonpayable",
      "type": "function"
    },
    {
      "inputs": [
        {
          "internalType": "uint256",
          "name": "value",
          "type": "uint256"
        }
      ],
      "name": "withDraw",
      "outputs": [],
      "stateMutability": "nonpayable",
      "type": "function"
    },
    {
      "inputs": [
        {
          "internalType": "uint256",
          "name": "adId",
          "type": "uint256"
        }
      ],
      "name": "buyEstate",
      "outputs": [],
      "stateMutability": "nonpayable",
      "type": "function"
    },
    {
      "inputs": [],
      "name": "getBalance",
      "outputs": [
        {
          "internalType": "uint256",
          "name": "",
          "type": "uint256"
        }
      ],
      "stateMutability": "view",
      "type": "function"
    },
    {
      "inputs": [],
      "name": "getEstates",
      "outputs": [
        {
          "components": [
            {
              "internalType": "uint256",
              "name": "size",
              "type": "uint256"
            },
            {
              "internalType": "string",
              "name": "estateAddress",
              "type": "string"
            },
            {
              "internalType": "address",
              "name": "owner",
              "type": "address"
            },
            {
              "internalType": "enum MyEstate.titeOfEstate",
              "name": "esType",
              "type": "uint8"
            },
            {
              "internalType": "bool",
              "name": "status",
              "type": "bool"
            },
            {
              "internalType": "uint256",
              "name": "idEstate",
              "type": "uint256"
            }
          ],
          "internalType": "struct MyEstate.Estate[]",
          "name": "",
          "type": "tuple[]"
        }
      ],
      "stateMutability": "view",
      "type": "function"
    },
    {
      "inputs": [],
      "name": "getAds",
      "outputs": [
        {
          "components": [
            {
              "internalType": "address",
              "name": "owner",
              "type": "address"
            },
            {
              "internalType": "address",
              "name": "buyer",
              "type": "address"
            },
            {
              "internalType": "uint256",
              "name": "price",
              "type": "uint256"
            },
            {
              "internalType": "uint256",
              "name": "idEstate",
              "type": "uint256"
            },
            {
              "internalType": "uint256",
              "name": "dateTime",
              "type": "uint256"
            },
            {
              "internalType": "enum MyEstate.status",
              "name": "adStatus",
              "type": "uint8"
            }
          ],
          "internalType": "struct MyEstate.Advertisement[]",
          "name": "",
          "type": "tuple[]"
        }
      ],
      "stateMutability": "view",
      "type": "function"
    },
    {
      "inputs": [],
      "name": "pay",
      "outputs": [],
      "stateMutability": "payable",
      "type": "function"
    }
  ],
  "bytecode": "0x608060405234801561000f575f80fd5b5061263a8061001d5f395ff3fe608060405260043610610090575f3560e01c8063298e64df11610058578063298e64df14610142578063429852a01461016a57806375c178b714610192578063911e2c82146101ba578063d40c48c2146101e257610090565b8063031aa2f8146100945780630955ae99146100bc57806312065fe0146100e657806314174f33146101105780631b9265b814610138575b5f80fd5b34801561009f575f80fd5b506100ba60048036038101906100b5919061156a565b61020c565b005b3480156100c7575f80fd5b506100d0610541565b6040516100dd919061178a565b60405180910390f35b3480156100f1575f80fd5b506100fa61069e565b60405161010791906117b9565b60405180910390f35b34801561011b575f80fd5b50610136600480360381019061013191906117d2565b6106e2565b005b610140610837565b005b34801561014d575f80fd5b506101686004803603810190610163919061156a565b6108c5565b005b348015610175575f80fd5b50610190600480360381019061018b91906117d2565b610ad7565b005b34801561019d575f80fd5b506101b860048036038101906101b391906117d2565b610d3a565b005b3480156101c5575f80fd5b506101e060048036038101906101db919061195c565b611199565b005b3480156101ed575f80fd5b506101f661137d565b6040516102039190611be3565b60405180910390f35b803373ffffffffffffffffffffffffffffffffffffffff165f828154811061023757610236611c03565b5b905f5260205f2090600402016002015f9054906101000a900473ffffffffffffffffffffffffffffffffffffffff1673ffffffffffffffffffffffffffffffffffffffff16146102bc576040517f08c379a00000000000000000000000000000000000000000000000000000000081526004016102b390611c8a565b60405180910390fd5b815f811015806102d057505f805490508111155b61030f576040517f08c379a000000000000000000000000000000000000000000000000000000000815260040161030690611cf2565b60405180910390fd5b825f818154811061032357610322611c03565b5b905f5260205f20906004020160020160159054906101000a900460ff1661037f576040517f08c379a000000000000000000000000000000000000000000000000000000000815260040161037690611d5a565b60405180910390fd5b60016040518060c001604052803373ffffffffffffffffffffffffffffffffffffffff1681526020015f73ffffffffffffffffffffffffffffffffffffffff1681526020018781526020018681526020014281526020015f60018111156103e9576103e861161f565b5b815250908060018154018082558091505060019003905f5260205f2090600602015f909190919091505f820151815f015f6101000a81548173ffffffffffffffffffffffffffffffffffffffff021916908373ffffffffffffffffffffffffffffffffffffffff1602179055506020820151816001015f6101000a81548173ffffffffffffffffffffffffffffffffffffffff021916908373ffffffffffffffffffffffffffffffffffffffff16021790555060408201518160020155606082015181600301556080820151816004015560a0820151816005015f6101000a81548160ff021916908360018111156104e4576104e361161f565b5b021790555050507f332923823989e217d7cf3db008148e922de6d40a0f18672ff1d70709f01d6fe933856001808054905061051f9190611da5565b4289604051610532959493929190611de7565b60405180910390a15050505050565b60606001805480602002602001604051908101604052809291908181526020015f905b82821015610695578382905f5260205f2090600602016040518060c00160405290815f82015f9054906101000a900473ffffffffffffffffffffffffffffffffffffffff1673ffffffffffffffffffffffffffffffffffffffff1673ffffffffffffffffffffffffffffffffffffffff168152602001600182015f9054906101000a900473ffffffffffffffffffffffffffffffffffffffff1673ffffffffffffffffffffffffffffffffffffffff1673ffffffffffffffffffffffffffffffffffffffff168152602001600282015481526020016003820154815260200160048201548152602001600582015f9054906101000a900460ff1660018111156106705761066f61161f565b5b60018111156106825761068161161f565b5b8152505081526020019060010190610564565b50505050905090565b5f60025f3373ffffffffffffffffffffffffffffffffffffffff1673ffffffffffffffffffffffffffffffffffffffff1681526020019081526020015f2054905090565b8060025f3373ffffffffffffffffffffffffffffffffffffffff1673ffffffffffffffffffffffffffffffffffffffff1681526020019081526020015f20541015610762576040517f08c379a000000000000000000000000000000000000000000000000000000000815260040161075990611ea8565b60405180910390fd5b3373ffffffffffffffffffffffffffffffffffffffff166108fc8290811502906040515f60405180830381858888f193505050501580156107a5573d5f803e3d5ffd5b508060025f3373ffffffffffffffffffffffffffffffffffffffff1673ffffffffffffffffffffffffffffffffffffffff1681526020019081526020015f205f8282546107f29190611ec6565b925050819055507f335267fb95eb0417a1ccf080837ce29c84026ebb4763b5ece0a9a543361a2d8d33824260405161082c93929190611ef9565b60405180910390a150565b3460025f3373ffffffffffffffffffffffffffffffffffffffff1673ffffffffffffffffffffffffffffffffffffffff1681526020019081526020015f205f8282546108839190611da5565b925050819055507f4638e2c4b3e75a226305e297cba8ef8052f96c01dcd2fe311ef84ff70d0f7e3733346040516108bb929190611f2e565b60405180910390a1565b813373ffffffffffffffffffffffffffffffffffffffff16600182815481106108f1576108f0611c03565b5b905f5260205f2090600602015f015f9054906101000a900473ffffffffffffffffffffffffffffffffffffffff1673ffffffffffffffffffffffffffffffffffffffff1614610975576040517f08c379a000000000000000000000000000000000000000000000000000000000815260040161096c90611fc5565b60405180910390fd5b815f818154811061098957610988611c03565b5b905f5260205f20906004020160020160159054906101000a900460ff166109e5576040517f08c379a00000000000000000000000000000000000000000000000000000000081526004016109dc90611d5a565b60405180910390fd5b835f811015806109fa57506001805490508111155b610a39576040517f08c379a0000000000000000000000000000000000000000000000000000000008152600401610a309061202d565b60405180910390fd5b600180811115610a4c57610a4b61161f565b5b60018681548110610a6057610a5f611c03565b5b905f5260205f2090600602016005015f9054906101000a900460ff166001811115610a8e57610a8d61161f565b5b50507f77f451472e145703b9cd81205e24609669f2206e0e640bf0e74f4e589ddca2a1338587426001604051610ac895949392919061205a565b60405180910390a15050505050565b803373ffffffffffffffffffffffffffffffffffffffff165f8281548110610b0257610b01611c03565b5b905f5260205f2090600402016002015f9054906101000a900473ffffffffffffffffffffffffffffffffffffffff1673ffffffffffffffffffffffffffffffffffffffff1614610b87576040517f08c379a0000000000000000000000000000000000000000000000000000000008152600401610b7e90611c8a565b60405180910390fd5b815f81101580610b9b57505f805490508111155b610bda576040517f08c379a0000000000000000000000000000000000000000000000000000000008152600401610bd190611cf2565b60405180910390fd5b5f808481548110610bee57610bed611c03565b5b905f5260205f20906004020160020160156101000a81548160ff0219169083151502179055507ffad944d4bd20e3868741a4973a5a72f7b356cacc8fc230be77f2f1bd2616c72b3384425f604051610c4994939291906120ba565b60405180910390a15f5b600180549050811015610d34578360018281548110610c7557610c74611c03565b5b905f5260205f2090600602016003015403610d21576001808281548110610c9f57610c9e611c03565b5b905f5260205f2090600602016005015f6101000a81548160ff02191690836001811115610ccf57610cce61161f565b5b02179055507f77f451472e145703b9cd81205e24609669f2206e0e640bf0e74f4e589ddca2a13385600184610d049190611da5565b426001604051610d1895949392919061205a565b60405180910390a15b8080610d2c906120fd565b915050610c53565b50505050565b805f6001811115610d4e57610d4d61161f565b5b60018281548110610d6257610d61611c03565b5b905f5260205f2090600602016005015f9054906101000a900460ff166001811115610d9057610d8f61161f565b5b14610dd0576040517f08c379a0000000000000000000000000000000000000000000000000000000008152600401610dc79061218e565b60405180910390fd5b815f81101580610de557506001805490508111155b610e24576040517f08c379a0000000000000000000000000000000000000000000000000000000008152600401610e1b9061202d565b60405180910390fd5b60018381548110610e3857610e37611c03565b5b905f5260205f2090600602016002015460025f3373ffffffffffffffffffffffffffffffffffffffff1673ffffffffffffffffffffffffffffffffffffffff1681526020019081526020015f20541015610ec7576040517f08c379a0000000000000000000000000000000000000000000000000000000008152600401610ebe906121f6565b60405180910390fd5b60018381548110610edb57610eda611c03565b5b905f5260205f2090600602016002015460025f3373ffffffffffffffffffffffffffffffffffffffff1673ffffffffffffffffffffffffffffffffffffffff1681526020019081526020015f205f828254610f369190611ec6565b9250508190555060018381548110610f5157610f50611c03565b5b905f5260205f2090600602016002015460025f60018681548110610f7857610f77611c03565b5b905f5260205f2090600602015f015f9054906101000a900473ffffffffffffffffffffffffffffffffffffffff1673ffffffffffffffffffffffffffffffffffffffff1673ffffffffffffffffffffffffffffffffffffffff1681526020019081526020015f205f828254610fed9190611da5565b92505081905550600180848154811061100957611008611c03565b5b905f5260205f2090600602016005015f6101000a81548160ff021916908360018111156110395761103861161f565b5b02179055505f806001858154811061105457611053611c03565b5b905f5260205f209060060201600301548154811061107557611074611c03565b5b905f5260205f20906004020160020160156101000a81548160ff0219169083151502179055507f7e6114a39eb3b5801a16a60d9eed8f5b914d91de8c5d76a6152771cf739093f9600184815481106110d0576110cf611c03565b5b905f5260205f2090600602015f015f9054906101000a900473ffffffffffffffffffffffffffffffffffffffff1633856001878154811061111457611113611c03565b5b905f5260205f209060060201600301546001888154811061113857611137611c03565b5b905f5260205f2090600602016005015f9054906101000a900460ff164260018a8154811061116957611168611c03565b5b905f5260205f2090600602016002015460405161118c9796959493929190612214565b60405180910390a1505050565b600183116111dc576040517f08c379a00000000000000000000000000000000000000000000000000000000081526004016111d3906122cb565b60405180910390fd5b5f6040518060c001604052808581526020018481526020013373ffffffffffffffffffffffffffffffffffffffff1681526020018360028111156112235761122261161f565b5b815260200160011515815260200160015f805490506112429190611da5565b815250908060018154018082558091505060019003905f5260205f2090600402015f909190919091505f820151815f0155602082015181600101908161128891906124e3565b506040820151816002015f6101000a81548173ffffffffffffffffffffffffffffffffffffffff021916908373ffffffffffffffffffffffffffffffffffffffff16021790555060608201518160020160146101000a81548160ff021916908360028111156112fa576112f961161f565b5b021790555060808201518160020160156101000a81548160ff02191690831515021790555060a0820151816003015550507f4c515978bca735cb21923cf1e49e52bd6b062b61c31ff54d708011feaaf276d93360015f8054905061135e9190611da5565b428460405161137094939291906125c1565b60405180910390a1505050565b60605f805480602002602001604051908101604052809291908181526020015f905b8282101561151d578382905f5260205f2090600402016040518060c00160405290815f82015481526020016001820180546113d990612316565b80601f016020809104026020016040519081016040528092919081815260200182805461140590612316565b80156114505780601f1061142757610100808354040283529160200191611450565b820191905f5260205f20905b81548152906001019060200180831161143357829003601f168201915b50505050508152602001600282015f9054906101000a900473ffffffffffffffffffffffffffffffffffffffff1673ffffffffffffffffffffffffffffffffffffffff1673ffffffffffffffffffffffffffffffffffffffff1681526020016002820160149054906101000a900460ff1660028111156114d3576114d261161f565b5b60028111156114e5576114e461161f565b5b81526020016002820160159054906101000a900460ff161515151581526020016003820154815250508152602001906001019061139f565b50505050905090565b5f604051905090565b5f80fd5b5f80fd5b5f819050919050565b61154981611537565b8114611553575f80fd5b50565b5f8135905061156481611540565b92915050565b5f80604083850312156115805761157f61152f565b5b5f61158d85828601611556565b925050602061159e85828601611556565b9150509250929050565b5f81519050919050565b5f82825260208201905092915050565b5f819050602082019050919050565b5f73ffffffffffffffffffffffffffffffffffffffff82169050919050565b5f6115fa826115d1565b9050919050565b61160a816115f0565b82525050565b61161981611537565b82525050565b7f4e487b71000000000000000000000000000000000000000000000000000000005f52602160045260245ffd5b6002811061165d5761165c61161f565b5b50565b5f81905061166d8261164c565b919050565b5f61167c82611660565b9050919050565b61168c81611672565b82525050565b60c082015f8201516116a65f850182611601565b5060208201516116b96020850182611601565b5060408201516116cc6040850182611610565b5060608201516116df6060850182611610565b5060808201516116f26080850182611610565b5060a082015161170560a0850182611683565b50505050565b5f6117168383611692565b60c08301905092915050565b5f602082019050919050565b5f611738826115a8565b61174281856115b2565b935061174d836115c2565b805f5b8381101561177d578151611764888261170b565b975061176f83611722565b925050600181019050611750565b5085935050505092915050565b5f6020820190508181035f8301526117a2818461172e565b905092915050565b6117b381611537565b82525050565b5f6020820190506117cc5f8301846117aa565b92915050565b5f602082840312156117e7576117e661152f565b5b5f6117f484828501611556565b91505092915050565b5f80fd5b5f80fd5b5f601f19601f8301169050919050565b7f4e487b71000000000000000000000000000000000000000000000000000000005f52604160045260245ffd5b61184b82611805565b810181811067ffffffffffffffff8211171561186a57611869611815565b5b80604052505050565b5f61187c611526565b90506118888282611842565b919050565b5f67ffffffffffffffff8211156118a7576118a6611815565b5b6118b082611805565b9050602081019050919050565b828183375f83830152505050565b5f6118dd6118d88461188d565b611873565b9050828152602081018484840111156118f9576118f8611801565b5b6119048482856118bd565b509392505050565b5f82601f8301126119205761191f6117fd565b5b81356119308482602086016118cb565b91505092915050565b60038110611945575f80fd5b50565b5f8135905061195681611939565b92915050565b5f805f606084860312156119735761197261152f565b5b5f61198086828701611556565b935050602084013567ffffffffffffffff8111156119a1576119a0611533565b5b6119ad8682870161190c565b92505060406119be86828701611948565b9150509250925092565b5f81519050919050565b5f82825260208201905092915050565b5f819050602082019050919050565b5f81519050919050565b5f82825260208201905092915050565b5f5b83811015611a28578082015181840152602081019050611a0d565b5f8484015250505050565b5f611a3d826119f1565b611a4781856119fb565b9350611a57818560208601611a0b565b611a6081611805565b840191505092915050565b60038110611a7c57611a7b61161f565b5b50565b5f819050611a8c82611a6b565b919050565b5f611a9b82611a7f565b9050919050565b611aab81611a91565b82525050565b5f8115159050919050565b611ac581611ab1565b82525050565b5f60c083015f830151611ae05f860182611610565b5060208301518482036020860152611af88282611a33565b9150506040830151611b0d6040860182611601565b506060830151611b206060860182611aa2565b506080830151611b336080860182611abc565b5060a0830151611b4660a0860182611610565b508091505092915050565b5f611b5c8383611acb565b905092915050565b5f602082019050919050565b5f611b7a826119c8565b611b8481856119d2565b935083602082028501611b96856119e2565b805f5b85811015611bd15784840389528151611bb28582611b51565b9450611bbd83611b64565b925060208a01995050600181019050611b99565b50829750879550505050505092915050565b5f6020820190508181035f830152611bfb8184611b70565b905092915050565b7f4e487b71000000000000000000000000000000000000000000000000000000005f52603260045260245ffd5b5f82825260208201905092915050565b7f796f75206d757374206265206120657374617465206f776e65720000000000005f82015250565b5f611c74601a83611c30565b9150611c7f82611c40565b602082019050919050565b5f6020820190508181035f830152611ca181611c68565b9050919050565b7f6573746174652069736e742065786973740000000000000000000000000000005f82015250565b5f611cdc601183611c30565b9150611ce782611ca8565b602082019050919050565b5f6020820190508181035f830152611d0981611cd0565b9050919050565b7f7468697320657374617465206973206e6f7420616c6c6f7700000000000000005f82015250565b5f611d44601883611c30565b9150611d4f82611d10565b602082019050919050565b5f6020820190508181035f830152611d7181611d38565b9050919050565b7f4e487b71000000000000000000000000000000000000000000000000000000005f52601160045260245ffd5b5f611daf82611537565b9150611dba83611537565b9250828201905080821115611dd257611dd1611d78565b5b92915050565b611de1816115f0565b82525050565b5f60a082019050611dfa5f830188611dd8565b611e0760208301876117aa565b611e1460408301866117aa565b611e2160608301856117aa565b611e2e60808301846117aa565b9695505050505050565b7f76616c7565206d757374206265206c657373207468616e206f7220657175616c5f8201527f20746f2062616c616e6365000000000000000000000000000000000000000000602082015250565b5f611e92602b83611c30565b9150611e9d82611e38565b604082019050919050565b5f6020820190508181035f830152611ebf81611e86565b9050919050565b5f611ed082611537565b9150611edb83611537565b9250828203905081811115611ef357611ef2611d78565b5b92915050565b5f606082019050611f0c5f830186611dd8565b611f1960208301856117aa565b611f2660408301846117aa565b949350505050565b5f604082019050611f415f830185611dd8565b611f4e60208301846117aa565b9392505050565b7f796f75206d7573742062652061206164766572746973656d656e74206f776e655f8201527f7200000000000000000000000000000000000000000000000000000000000000602082015250565b5f611faf602183611c30565b9150611fba82611f55565b604082019050919050565b5f6020820190508181035f830152611fdc81611fa3565b9050919050565b7f6164766572746973656d656e742069736e7420657869737400000000000000005f82015250565b5f612017601883611c30565b915061202282611fe3565b602082019050919050565b5f6020820190508181035f8301526120448161200b565b9050919050565b61205481611672565b82525050565b5f60a08201905061206d5f830188611dd8565b61207a60208301876117aa565b61208760408301866117aa565b61209460608301856117aa565b6120a1608083018461204b565b9695505050505050565b6120b481611ab1565b82525050565b5f6080820190506120cd5f830187611dd8565b6120da60208301866117aa565b6120e760408301856117aa565b6120f460608301846120ab565b95945050505050565b5f61210782611537565b91507fffffffffffffffffffffffffffffffffffffffffffffffffffffffffffffffff820361213957612138611d78565b5b600182019050919050565b7f6164766572746973656d656e74206d757374206265206f70656e0000000000005f82015250565b5f612178601a83611c30565b915061218382612144565b602082019050919050565b5f6020820190508181035f8301526121a58161216c565b9050919050565b7f6e6f74206861766520656e6f756768206d6f6e657900000000000000000000005f82015250565b5f6121e0601583611c30565b91506121eb826121ac565b602082019050919050565b5f6020820190508181035f83015261220d816121d4565b9050919050565b5f60e0820190506122275f83018a611dd8565b6122346020830189611dd8565b61224160408301886117aa565b61224e60608301876117aa565b61225b608083018661204b565b61226860a08301856117aa565b61227560c08301846117aa565b98975050505050505050565b7f73697a652073686f756c642062652062696767657220310000000000000000005f82015250565b5f6122b5601783611c30565b91506122c082612281565b602082019050919050565b5f6020820190508181035f8301526122e2816122a9565b9050919050565b7f4e487b71000000000000000000000000000000000000000000000000000000005f52602260045260245ffd5b5f600282049050600182168061232d57607f821691505b6020821081036123405761233f6122e9565b5b50919050565b5f819050815f5260205f209050919050565b5f6020601f8301049050919050565b5f82821b905092915050565b5f600883026123a27fffffffffffffffffffffffffffffffffffffffffffffffffffffffffffffffff82612367565b6123ac8683612367565b95508019841693508086168417925050509392505050565b5f819050919050565b5f6123e76123e26123dd84611537565b6123c4565b611537565b9050919050565b5f819050919050565b612400836123cd565b61241461240c826123ee565b848454612373565b825550505050565b5f90565b61242861241c565b6124338184846123f7565b505050565b5b818110156124565761244b5f82612420565b600181019050612439565b5050565b601f82111561249b5761246c81612346565b61247584612358565b81016020851015612484578190505b61249861249085612358565b830182612438565b50505b505050565b5f82821c905092915050565b5f6124bb5f19846008026124a0565b1980831691505092915050565b5f6124d383836124ac565b9150826002028217905092915050565b6124ec826119f1565b67ffffffffffffffff81111561250557612504611815565b5b61250f8254612316565b61251a82828561245a565b5f60209050601f83116001811461254b575f8415612539578287015190505b61254385826124c8565b8655506125aa565b601f19841661255986612346565b5f5b828110156125805784890151825560018201915060208501945060208101905061255b565b8683101561259d5784890151612599601f8916826124ac565b8355505b6001600288020188555050505b505050505050565b6125bb81611a91565b82525050565b5f6080820190506125d45f830187611dd8565b6125e160208301866117aa565b6125ee60408301856117aa565b6125fb60608301846125b2565b9594505050505056fea26469706673582212205828e5368867fe82f84b4348694d0cd6d95f7591cb4393107027cc2c84f5c93964736f6c63430008150033",
  "immutableReferences": {},
  "source": "// SPDX-License-Identifier: GPL-3.0\r\npragma solidity >=0.7.0 <0.9.0;\r\n\r\n\r\ncontract MyEstate {\r\n    enum titeOfEstate {\r\n        house,\r\n        flat,\r\n        loft\r\n    }\r\n\r\n    enum status {\r\n        opened,\r\n        closed\r\n    }\r\n\r\n    struct Estate {\r\n        uint size;\r\n        string estateAddress;\r\n        address owner;\r\n        titeOfEstate esType;\r\n        bool status;\r\n        uint idEstate;\r\n    }\r\n\r\n    struct Advertisement {\r\n        address owner;\r\n        address buyer;\r\n        uint price;\r\n        uint idEstate;\r\n        uint dateTime;\r\n        status adStatus;\r\n    }\r\n\r\n    Estate[] estate;\r\n    Advertisement[] ads;\r\n\r\n    mapping(address=>uint) private  balances;\r\n\r\n    event estateCreated(address _owner, uint _idAstate, uint _dateTime, titeOfEstate _esType);\r\n    event adCreated(address _owner, uint _idEstate, uint _idAd, uint _dateTime, uint _price);\r\n    event estateStatusChanged(address _owner, uint _idEstate, uint _dateTime, bool _isActive);\r\n    event adStatusChanged(address _owner, uint _idEstate, uint idAd, uint _dateTime, status _adStatus);\r\n    event fundsBack(address _to, uint _value, uint _dateTime);\r\n    event estatePurchased(address _owner, address _buyer, uint _idAd, uint _idEstate, status _adStatus, uint _dateTime, uint _price);\r\n    event fundsBack(address _from, uint _amount);\r\n    event Payd(address _from, uint _amount);\r\n\r\n    modifier onlyEstateOwner(uint idEstate) {\r\n        require(estate[idEstate].owner == msg.sender, \"you must be a estate owner\");\r\n        _;\r\n    }\r\n\r\n    modifier onlyAdOwner(uint idAd) {\r\n        require(ads[idAd].owner == msg.sender, \"you must be a advertisement owner\");\r\n        _;\r\n    }\r\n\r\n    modifier isActiveEstate(uint idEstate) {\r\n        require(estate[idEstate].status, \"this estate is not allow\");\r\n        _;\r\n    }\r\n\r\n    modifier isClosedAd(uint idAd) {\r\n        require(ads[idAd].adStatus == status.opened, \"advertisement must be open\");\r\n        _;\r\n    }\r\n\r\n    modifier isEstateExist(uint idEstate) {\r\n        require(idEstate >= 0 || idEstate <= estate.length, \"estate isnt exist\");\r\n        _;\r\n    }\r\n\r\n    modifier isAdExist(uint idAd) {\r\n        require(idAd >= 0 || idAd <= ads.length, \"advertisement isnt exist\");\r\n        _;\r\n    }\r\n\r\n    function cretaeEstate(uint size, string memory estateAddress, titeOfEstate estype) public {\r\n        require(size > 1, \"size should be bigger 1\");\r\n        estate.push(Estate(size, estateAddress, msg.sender, estype, true, estate.length + 1));\r\n        emit estateCreated(msg.sender, estate.length + 1, block.timestamp, estype);\r\n    }\r\n\r\n    function createAd(uint price, uint idEstate) public onlyEstateOwner(idEstate) isEstateExist(idEstate) isActiveEstate(idEstate) {\r\n        ads.push(Advertisement(msg.sender, address(0), price, idEstate, block.timestamp, status.opened));\r\n        emit adCreated(msg.sender, idEstate, ads.length + 1, block.timestamp, price);\r\n    }\r\n\r\n    function changeStatusEstate(uint idEstate) public onlyEstateOwner(idEstate) isEstateExist(idEstate) {\r\n        estate[idEstate].status = false;\r\n        emit estateStatusChanged(msg.sender, idEstate, block.timestamp, false);\r\n\r\n        for (uint i = 0; i < ads.length; i++) {\r\n            if (ads[i].idEstate == idEstate) {\r\n                ads[i].adStatus = status.closed;\r\n                emit adStatusChanged(msg.sender, idEstate, i+1, block.timestamp, status.closed);\r\n            }\r\n        }\r\n    }\r\n\r\n    function changeStatusAd(uint adId, uint estateId) public onlyAdOwner(adId) isActiveEstate(estateId) isAdExist(adId){\r\n        ads[adId].adStatus == status.closed;\r\n        emit adStatusChanged(msg.sender, estateId, adId, block.timestamp, status.closed);\r\n    }\r\n\r\n    function withDraw(uint value) public {\r\n        require(balances[msg.sender] >= value, \"value must be less than or equal to balance\");\r\n        payable(msg.sender).transfer(value);\r\n        balances[msg.sender] -= value;\r\n        emit fundsBack(msg.sender, value, block.timestamp);\r\n    }\r\n\r\n    function buyEstate(uint adId) isClosedAd(adId) isAdExist(adId) public {\r\n        require(balances[msg.sender] >= ads[adId].price, \"not have enough money\");\r\n        balances[msg.sender] -= ads[adId].price;\r\n        balances[ads[adId].owner] += ads[adId].price;\r\n        ads[adId].adStatus = status.closed;\r\n        estate[ads[adId].idEstate].status = false;\r\n        emit estatePurchased(ads[adId].owner, msg.sender, adId, ads[adId].idEstate, ads[adId].adStatus, block.timestamp, ads[adId].price);\r\n\r\n    }\r\n\r\n    function getBalance() public view returns(uint) {\r\n        return balances[msg.sender];\r\n    }\r\n\r\n    function getEstates() public view returns(Estate[] memory) {\r\n        return estate;\r\n    }\r\n\r\n    function getAds() public view returns(Advertisement[] memory) {\r\n        return ads;\r\n    }\r\n\r\n    function pay() public payable {\r\n        balances[msg.sender] += msg.value;\r\n        emit Payd(msg.sender, msg.value);\r\n    }\r\n}",
  "sourcePath": "C:\\Users\\eto_d\\OneDrive\\ \\test\\contracts\\MyEstate.sol",
  "compiler": {
    "name": "solc",
    "version": "0.8.21+commit.d9974bed.Emscripten.clang"
  },
  "schemaVersion": "3.4.16",
  "updatedAt": "2024-03-18T15:05:48.713Z",
  "devdoc": {
    "kind": "dev",
    "methods": {},
    "version": 1
  },
  "userdoc": {
    "kind": "user",
    "methods": {},
    "version": 1
  }
}